{
  "contractName": "MainStarport",
  "abi": [
    {
      "inputs": [],
      "stateMutability": "nonpayable",
      "type": "constructor"
    },
    {
      "anonymous": false,
      "inputs": [
        {
          "indexed": true,
          "internalType": "address",
          "name": "previousOwner",
          "type": "address"
        },
        {
          "indexed": true,
          "internalType": "address",
          "name": "newOwner",
          "type": "address"
        }
      ],
      "name": "OwnershipTransferred",
      "type": "event"
    },
    {
      "inputs": [
        {
          "internalType": "uint256",
          "name": "",
          "type": "uint256"
        }
      ],
      "name": "_dockedShips",
      "outputs": [
        {
          "components": [
            {
              "components": [
                {
                  "internalType": "string",
                  "name": "galaxy",
                  "type": "string"
                },
                {
                  "internalType": "address",
                  "name": "starportId",
                  "type": "address"
                },
                {
                  "internalType": "uint256",
                  "name": "amount",
                  "type": "uint256"
                }
              ],
              "internalType": "struct DiamondShard[]",
              "name": "diamondShards",
              "type": "tuple[]"
            },
            {
              "internalType": "uint256",
              "name": "shipId",
              "type": "uint256"
            },
            {
              "internalType": "uint16",
              "name": "shipType",
              "type": "uint16"
            },
            {
              "internalType": "uint16",
              "name": "shipLevel",
              "type": "uint16"
            }
          ],
          "internalType": "struct StarshipInfo",
          "name": "shipInfo",
          "type": "tuple"
        },
        {
          "internalType": "uint256",
          "name": "startBlock",
          "type": "uint256"
        },
        {
          "internalType": "bool",
          "name": "used",
          "type": "bool"
        }
      ],
      "stateMutability": "view",
      "type": "function",
      "constant": true
    },
    {
      "inputs": [
        {
          "internalType": "uint256",
          "name": "_start_block",
          "type": "uint256"
        }
      ],
      "name": "calcReward",
      "outputs": [
        {
          "internalType": "uint256",
          "name": "",
          "type": "uint256"
        }
      ],
      "stateMutability": "view",
      "type": "function",
      "constant": true
    },
    {
      "inputs": [],
      "name": "crossChainContract",
      "outputs": [
        {
          "internalType": "contract ICrossChain",
          "name": "",
          "type": "address"
        }
      ],
      "stateMutability": "view",
      "type": "function",
      "constant": true
    },
    {
      "inputs": [],
      "name": "currentShipId",
      "outputs": [
        {
          "internalType": "uint256",
          "name": "",
          "type": "uint256"
        }
      ],
      "stateMutability": "view",
      "type": "function",
      "constant": true
    },
    {
      "inputs": [],
      "name": "diamonds4Ship",
      "outputs": [
        {
          "internalType": "uint256",
          "name": "",
          "type": "uint256"
        }
      ],
      "stateMutability": "view",
      "type": "function",
      "constant": true
    },
    {
      "inputs": [
        {
          "components": [
            {
              "components": [
                {
                  "internalType": "string",
                  "name": "name",
                  "type": "string"
                },
                {
                  "internalType": "enum MsgType",
                  "name": "msgType",
                  "type": "uint8"
                },
                {
                  "internalType": "bytes",
                  "name": "value",
                  "type": "bytes"
                }
              ],
              "internalType": "struct PayloadItem[]",
              "name": "items",
              "type": "tuple[]"
            }
          ],
          "internalType": "struct Payload",
          "name": "_payload",
          "type": "tuple"
        }
      ],
      "name": "dock",
      "outputs": [
        {
          "internalType": "uint256",
          "name": "",
          "type": "uint256"
        }
      ],
      "stateMutability": "nonpayable",
      "type": "function"
    },
    {
      "inputs": [],
      "name": "getContext",
      "outputs": [
        {
          "components": [
            {
              "internalType": "uint256",
              "name": "id",
              "type": "uint256"
            },
            {
              "internalType": "string",
              "name": "fromChain",
              "type": "string"
            },
            {
              "internalType": "bytes",
              "name": "sender",
              "type": "bytes"
            },
            {
              "internalType": "bytes",
              "name": "signer",
              "type": "bytes"
            },
            {
              "components": [
                {
                  "internalType": "enum SQoSType",
                  "name": "t",
                  "type": "uint8"
                },
                {
                  "internalType": "bytes",
                  "name": "v",
                  "type": "bytes"
                }
              ],
              "internalType": "struct SQoS[]",
              "name": "sqos",
              "type": "tuple[]"
            },
            {
              "internalType": "address",
              "name": "contractAddress",
              "type": "address"
            },
            {
              "internalType": "bytes4",
              "name": "action",
              "type": "bytes4"
            },
            {
              "components": [
                {
                  "internalType": "uint256",
                  "name": "id",
                  "type": "uint256"
                },
                {
                  "internalType": "uint8",
                  "name": "sessionType",
                  "type": "uint8"
                },
                {
                  "internalType": "bytes",
                  "name": "callback",
                  "type": "bytes"
                },
                {
                  "internalType": "bytes",
                  "name": "commitment",
                  "type": "bytes"
                },
                {
                  "internalType": "bytes",
                  "name": "answer",
                  "type": "bytes"
                }
              ],
              "internalType": "struct Session",
              "name": "session",
              "type": "tuple"
            }
          ],
          "internalType": "struct SimplifiedMessage",
          "name": "",
          "type": "tuple"
        }
      ],
      "stateMutability": "view",
      "type": "function",
      "constant": true
    },
    {
      "inputs": [],
      "name": "owner",
      "outputs": [
        {
          "internalType": "address",
          "name": "",
          "type": "address"
        }
      ],
      "stateMutability": "view",
      "type": "function",
      "constant": true
    },
    {
      "inputs": [
        {
          "internalType": "string",
          "name": "_funcName",
          "type": "string"
        },
        {
          "internalType": "string",
          "name": "_toChain",
          "type": "string"
        },
        {
          "internalType": "bytes",
          "name": "_contractAddress",
          "type": "bytes"
        },
        {
          "internalType": "bytes",
          "name": "_contractFuncName",
          "type": "bytes"
        }
      ],
      "name": "registerDestContract",
      "outputs": [],
      "stateMutability": "nonpayable",
      "type": "function"
    },
    {
      "inputs": [],
      "name": "renounceOwnership",
      "outputs": [],
      "stateMutability": "nonpayable",
      "type": "function"
    },
    {
      "inputs": [
        {
          "internalType": "address",
          "name": "_address",
          "type": "address"
        }
      ],
      "name": "setCrossChainContract",
      "outputs": [],
      "stateMutability": "nonpayable",
      "type": "function"
    },
    {
      "inputs": [
        {
          "internalType": "address",
          "name": "_address",
          "type": "address"
        }
      ],
      "name": "setStarshipNFTAddress",
      "outputs": [],
      "stateMutability": "nonpayable",
      "type": "function"
    },
    {
      "inputs": [
        {
          "internalType": "uint256",
          "name": "_id",
          "type": "uint256"
        }
      ],
      "name": "settleReward",
      "outputs": [],
      "stateMutability": "nonpayable",
      "type": "function"
    },
    {
      "inputs": [
        {
          "internalType": "uint256",
          "name": "_id",
          "type": "uint256"
        }
      ],
      "name": "shardsOfStarship",
      "outputs": [
        {
          "components": [
            {
              "internalType": "string",
              "name": "galaxy",
              "type": "string"
            },
            {
              "internalType": "address",
              "name": "starportId",
              "type": "address"
            },
            {
              "internalType": "uint256",
              "name": "amount",
              "type": "uint256"
            }
          ],
          "internalType": "struct DiamondShard[]",
          "name": "shards",
          "type": "tuple[]"
        }
      ],
      "stateMutability": "view",
      "type": "function",
      "constant": true
    },
    {
      "inputs": [
        {
          "internalType": "address",
          "name": "newOwner",
          "type": "address"
        }
      ],
      "name": "transferOwnership",
      "outputs": [],
      "stateMutability": "nonpayable",
      "type": "function"
    },
    {
      "inputs": [
        {
          "internalType": "uint256",
          "name": "_id",
          "type": "uint256"
        },
        {
          "internalType": "bytes",
          "name": "_receiver",
          "type": "bytes"
        },
        {
          "internalType": "string",
          "name": "_toChain",
          "type": "string"
        }
      ],
      "name": "trek",
      "outputs": [],
      "stateMutability": "nonpayable",
      "type": "function"
    },
    {
      "inputs": [
        {
          "internalType": "string",
          "name": "_chainName",
          "type": "string"
        },
        {
          "internalType": "bytes4",
          "name": "_funcName",
          "type": "bytes4"
        },
        {
          "internalType": "bytes",
          "name": "_sender",
          "type": "bytes"
        }
      ],
      "name": "verify",
      "outputs": [
        {
          "internalType": "bool",
          "name": "",
          "type": "bool"
        }
      ],
      "stateMutability": "view",
      "type": "function",
      "constant": true
    },
    {
      "inputs": [],
      "name": "diamondFaucet",
      "outputs": [],
      "stateMutability": "nonpayable",
      "type": "function"
    },
    {
      "inputs": [
        {
          "internalType": "uint256",
          "name": "shipId",
          "type": "uint256"
        },
        {
          "internalType": "uint256",
          "name": "amount",
          "type": "uint256"
        }
      ],
      "name": "synthesizeDiamond",
      "outputs": [],
      "stateMutability": "nonpayable",
      "type": "function"
    },
    {
      "inputs": [
        {
          "internalType": "address",
          "name": "account",
          "type": "address"
        }
      ],
      "name": "diamondBalanceOf",
      "outputs": [
        {
          "internalType": "uint256",
          "name": "",
          "type": "uint256"
        }
      ],
      "stateMutability": "view",
      "type": "function",
      "constant": true
    },
    {
      "inputs": [
        {
          "internalType": "address",
          "name": "_to",
          "type": "address"
        },
        {
          "internalType": "uint16",
          "name": "_type",
          "type": "uint16"
        }
      ],
      "name": "createStarship",
      "outputs": [],
      "stateMutability": "nonpayable",
      "type": "function"
    },
    {
      "inputs": [
        {
          "components": [
            {
              "internalType": "string",
              "name": "galaxy",
              "type": "string"
            },
            {
              "internalType": "address",
              "name": "starportId",
              "type": "address"
            }
          ],
          "internalType": "struct MainStarport.StarportId[]",
          "name": "_ports",
          "type": "tuple[]"
        }
      ],
      "name": "setStarports",
      "outputs": [],
      "stateMutability": "nonpayable",
      "type": "function"
    },
    {
      "inputs": [],
      "name": "starports",
      "outputs": [
        {
          "components": [
            {
              "internalType": "string",
              "name": "galaxy",
              "type": "string"
            },
            {
              "internalType": "address",
              "name": "starportId",
              "type": "address"
            }
          ],
          "internalType": "struct MainStarport.StarportId[]",
          "name": "",
          "type": "tuple[]"
        }
      ],
      "stateMutability": "view",
      "type": "function",
      "constant": true
    }
  ],
  "bytecode": "0x60806040523480156200001157600080fd5b506200001d3362000029565b61229060075562000079565b600080546001600160a01b038381166001600160a01b0319831681178455604051919092169283917f8be0079c531659141344cd1fd0a4f28419497f9722a3daafe3b4186f6b6457e09190a35050565b61344a80620000896000396000f3fe608060405234801561001057600080fd5b506004361061014d5760003560e01c8063587e0965116100c3578063c981a9021161007c578063c981a902146102cd578063d147c99b146102ef578063dbc90de114610302578063f1e8262714610315578063f2fde38b14610328578063fcb663011461033b57600080fd5b8063587e0965146102515780636cd949771461025a578063715018a61461026d57806372f72af5146102755780638da5cb5b14610288578063a0abcc8c146102ad57600080fd5b806340e189b11161011557806340e189b1146101c25780634944e686146101d75780634fdd05931461020057806351942fd6146102135780635236e0c11461022b578063544c465c1461023e57600080fd5b8063127f0f071461015257806318d72b54146101705780631b068ea8146101855780633008e9321461019c5780633da987e6146101af575b600080fd5b61015a610364565b60405161016791906120d1565b60405180910390f35b61018361017e3660046121c1565b6103ec565b005b61018e60065481565b604051908152602001610167565b6101836101aa3660046121e5565b610416565b61018e6101bd366004612207565b610705565b6101ca610a0e565b6040516101679190612241565b6101f06101e536600461231e565b600195945050505050565b6040519015158152602001610167565b61018361020e3660046123a2565b610b12565b61018360075433600090815260056020526040902055565b610183610239366004612465565b610b96565b61018e61024c3660046124c0565b6111c6565b61018e60075481565b6101836102683660046121c1565b6111e6565b610183611210565b6101836102833660046124c0565b611224565b6000546001600160a01b03165b6040516001600160a01b039091168152602001610167565b6102c06102bb3660046124c0565b6114d9565b6040516101679190612557565b6102e06102db3660046124c0565b6116ab565b6040516101679392919061256a565b6101836102fd3660046125d4565b61180c565b600154610295906001600160a01b031681565b61018361032336600461260d565b611958565b6101836103363660046121c1565b611ba8565b61018e6103493660046121c1565b6001600160a01b031660009081526005602052604090205490565b61036c611ccb565b600160009054906101000a90046001600160a01b03166001600160a01b0316639af7a48c6040518163ffffffff1660e01b8152600401600060405180830381865afa1580156103bf573d6000803e3d6000fd5b505050506040513d6000823e601f3d908101601f191682016040526103e791908101906129c8565b905090565b6103f4611c21565b600180546001600160a01b0319166001600160a01b0392909216919091179055565b6003546040516331a9108f60e11b81526004810184905233916001600160a01b031690636352211e90602401602060405180830381865afa15801561045f573d6000803e3d6000fd5b505050506040513d601f19601f820116820180604052508101906104839190612af1565b6001600160a01b0316146104d65760405162461bcd60e51b815260206004820152601560248201527404e6f74206f776e6572206f6620746865207368697605c1b60448201526064015b60405180910390fd5b6000828152600260205260409020600481015460ff166105085760405162461bcd60e51b81526004016104cd90612b0e565b6000805b600854811015610676576000805b8454811015610649576008838154811061053657610536612b32565b600091825260209091206001600290920201015485546001600160a01b039091169086908390811061056a5761056a612b32565b60009182526020909120600160039092020101546001600160a01b03161480156106055750600883815481106105a2576105a2612b32565b90600052602060002090600202016000016040516105c09190612b83565b60405190819003902085548690839081106105dd576105dd612b32565b90600052602060002090600302016000016040516105fb9190612b83565b6040518091039020145b1561063757845485908290811061061e5761061e612b32565b9060005260206000209060030201600201549150610649565b8061064181612c0b565b91505061051a565b508161065757809250610663565b80831115610663578092505b508061066e81612c0b565b91505061050c565b50828111156106825750815b60005b82548110156106da57825482908490839081106106a4576106a4612b32565b906000526020600020906003020160020160008282546106c49190612c26565b909155506106d3905081612c0b565b9050610685565b5033600090815260056020526040812080548392906106fa908490612c3d565b909155505050505050565b6001546000906001600160a01b0316331461072257506064919050565b600061072e8380612c55565b600081811061073f5761073f612b32565b90506020028101906107519190612c9e565b61075f906040810190612cbe565b81019061076c9190612d04565b9050600061077a8480612c55565b600181811061078b5761078b612b32565b905060200281019061079d9190612c9e565b6107ab906040810190612cbe565b8101906107b891906124c0565b905060006107c68580612c55565b60028181106107d7576107d7612b32565b90506020028101906107e99190612c9e565b6107f7906040810190612cbe565b8101906108049190612d04565b8060200190518101906108179190612d89565b600354604051632129372760e11b81529192506001600160a01b0316906360f776fb9073__Bytes_________________________________906342526e4e90610864908890600401612ee1565b602060405180830381865af4158015610881573d6000803e3d6000fd5b505050506040513d601f19601f820116820180604052508101906108a59190612af1565b6040516001600160e01b031960e084901b1681526001600160a01b03909116600482015260248101859052604401600060405180830381600087803b1580156108ed57600080fd5b505af1158015610901573d6000803e3d6000fd5b50505060008381526002602081815260408084209186015160018301558501519181018054606087015161ffff908116620100000263ffffffff199092169416939093179290921790915591505b8251518110156109ee57825180518391908390811061097057610970612b32565b6020908102919091018101518254600181018455600093845292829020815180519294600302909101926109a992849290910190611d55565b5060208201516001820180546001600160a01b0319166001600160a01b03909216919091179055604090910151600290910155806109e681612c0b565b91505061094f565b50436003820155600401805460ff19166001179055506000949350505050565b60606008805480602002602001604051908101604052809291908181526020016000905b82821015610b095783829060005260206000209060020201604051806040016040529081600082018054610a6590612b48565b80601f0160208091040260200160405190810160405280929190818152602001828054610a9190612b48565b8015610ade5780601f10610ab357610100808354040283529160200191610ade565b820191906000526020600020905b815481529060010190602001808311610ac157829003601f168201915b50505091835250506001918201546001600160a01b0316602091820152918352929092019101610a32565b50505050905090565b610b1a611c21565b600060048787604051610b2e929190612ef4565b908152602001604051809103902090506000818a8a604051610b51929190612ef4565b9081526040519081900360200190209050610b6d818787611dd9565b50610b7c600182018585611dd9565b50600201805460ff19166001179055505050505050505050565b6000858152600260205260409020600481015460ff16610bc85760405162461bcd60e51b81526004016104cd90612b0e565b6003546040516331a9108f60e11b81526004810188905233916001600160a01b031690636352211e90602401602060405180830381865afa158015610c11573d6000803e3d6000fd5b505050506040513d601f19601f82011682018060405250810190610c359190612af1565b6001600160a01b031614610c775760405162461bcd60e51b81526020600482015260096024820152682737ba1037bbb732b960b91b60448201526064016104cd565b600060048484604051610c8b929190612ef4565b90815260405190819003602001812063646f636b60e01b825291506000908290600401908152604051908190036020019020600281015490915060ff16610d0c5760405162461bcd60e51b81526020600482015260156024820152741858dd1a5bdb881b9bdd081c9959da5cdd195c9959605a1b60448201526064016104cd565b610d1588611224565b604080516020810182526060815281516003808252608082019093529091816020015b60408051606080820183528082526000602083015291810191909152815260200190600190039081610d385750508082528051600091908290610d7d57610d7d612b32565b60209081029190910181015160408051808201825260088152673932b1b2b4bb32b960c11b818501528252600c8284015251909250610dc0918b918b9101612f2d565b60408051601f1981840301815291815282015281518051600091906001908110610dec57610dec612b32565b6020908102919091018101516040805180820190915260028152611a5960f21b8184015281529150600590820181905250604080516fffffffffffffffffffffffffffffffff8d1660208201520160408051601f1981840301815291815282015282518051600091906002908110610e6657610e66612b32565b602090810291909101810151604080518082018252600c8082526b73746172736869704461746160a01b828601529083528284015251909250610eab91899101612f41565b60408051601f1981840301815290829052610ec891602001612ee1565b60408051601f198184030181529181528281019190915260008d81526002602052908120908181610ef98282611e4d565b506000600182018190556002909101805463ffffffff191690556003838101919091556004928301805460ff191690555460405163852b3fbd60e01b81529283018f90526001600160a01b03169163852b3fbd9150602401600060405180830381600087803b158015610f6b57600080fd5b505af1158015610f7f573d6000803e3d6000fd5b50505050610f8b611e6e565b89898080601f016020809104026020016040519081016040528093929190818152602001838380828437600092018290525093855250506040805160a081018252838152602080820185905282518082018452858152828401528251808201845285815260608084019190915283519182018452948152608082015283850152805192830190525086548190889061102290612b48565b80601f016020809104026020016040519081016040528092919081815260200182805461104e90612b48565b801561109b5780601f106110705761010080835404028352916020019161109b565b820191906000526020600020905b81548152906001019060200180831161107e57829003601f168201915b505050505081526020018760010180546110b490612b48565b80601f01602080910402602001604051908101604052809291908181526020018280546110e090612b48565b801561112d5780601f106111025761010080835404028352916020019161112d565b820191906000526020600020905b81548152906001019060200180831161111057829003601f168201915b50505091835250506020018690526040808301919091526001549051632f260fd760e01b81526001600160a01b0390911690632f260fd79061117390849060040161306b565b6020604051808303816000875af1158015611192573d6000803e3d6000fd5b505050506040513d601f19601f820116820180604052508101906111b6919061319c565b5050505050505050505050505050565b60008143116111d65760006111e0565b6111e08243612c26565b92915050565b6111ee611c21565b600380546001600160a01b0319166001600160a01b0392909216919091179055565b611218611c21565b6112226000611c7b565b565b6000818152600260205260409020600481015460ff166112565760405162461bcd60e51b81526004016104cd90612b0e565b6000805b82548110156113c657600160009054906101000a90046001600160a01b03166001600160a01b0316631c93b03a6040518163ffffffff1660e01b81526004016000604051808303816000875af11580156112b8573d6000803e3d6000fd5b505050506040513d6000823e601f3d908101601f191682016040526112e091908101906131b5565b805160209091012083548490839081106112fc576112fc612b32565b906000526020600020906003020160000160405161131a9190612b83565b604051809103902014801561135f57508254309084908390811061134057611340612b32565b60009182526020909120600160039092020101546001600160a01b0316145b156113b4576001915061137583600301546111c6565b835484908390811061138957611389612b32565b906000526020600020906003020160020160008282546113a99190612c3d565b909155506113c69050565b806113be81612c0b565b91505061125a565b50806114ce576040805160608101808352600154630e49d81d60e11b9091529151849282916001600160a01b0390911690631c93b03a90606480850191600091818703018183875af1158015611420573d6000803e3d6000fd5b505050506040513d6000823e601f3d908101601f1916820160405261144891908101906131b5565b8152602001306001600160a01b0316815260200161146985600301546111c6565b90528154600181018355600092835260209283902082518051939460039093029091019261149a9284920190611d55565b5060208201516001820180546001600160a01b0319166001600160a01b039092169190911790556040909101516002909101555b504360039091015550565b600081815260026020526040902060048101546060919060ff1661150f5760405162461bcd60e51b81526004016104cd90612b0e565b80546001600160401b0381111561152857611528612681565b60405190808252806020026020018201604052801561158657816020015b61157360405180606001604052806060815260200160006001600160a01b03168152602001600081525090565b8152602001906001900390816115465790505b50915060005b81548110156116a45781548290829081106115a9576115a9612b32565b90600052602060002090600302016040518060600160405290816000820180546115d290612b48565b80601f01602080910402602001604051908101604052809291908181526020018280546115fe90612b48565b801561164b5780601f106116205761010080835404028352916020019161164b565b820191906000526020600020905b81548152906001019060200180831161162e57829003601f168201915b505050918352505060018201546001600160a01b03166020820152600290910154604090910152835184908390811061168657611686612b32565b6020026020010181905250808061169c90612c0b565b91505061158c565b5050919050565b60026020908152600091825260408083208151815460a09481028201850190935260808101838152919490938593859392859285015b828210156117c8578382906000526020600020906003020160405180606001604052908160008201805461171490612b48565b80601f016020809104026020016040519081016040528092919081815260200182805461174090612b48565b801561178d5780601f106117625761010080835404028352916020019161178d565b820191906000526020600020905b81548152906001019060200180831161177057829003601f168201915b50505091835250506001828101546001600160a01b0316602080840191909152600290930154604090920191909152918352920191016116e1565b505050908252506001820154602082015260029091015461ffff80821660408401526201000090910416606090910152600382015460049092015490919060ff1683565b6007543360009081526005602052604090205410156118635760405162461bcd60e51b81526020600482015260136024820152724e6f7420656e6f756768206469616d6f6e647360681b60448201526064016104cd565b6007543360009081526005602052604081208054909190611885908490612c26565b9091555050600680546000918261189b83612c0b565b909155506003546040516360f776fb60e01b81526001600160a01b038681166004830152602482018490529293509116906360f776fb90604401600060405180830381600087803b1580156118ef57600080fd5b505af1158015611903573d6000803e3d6000fd5b5050506000828152600260208190526040909120600180820194909455908101805463ffffffff191661ffff909516949094176201000017909355504360038301556004909101805460ff1916909117905550565b611960611c21565b60005b81811015611b3f576000611978826001612c3d565b90505b82811015611a7557600084848481811061199757611997612b32565b90506020028101906119a991906131e9565b6040516020016119b991906131ff565b6040516020818303038152906040528051906020012090508484838181106119e3576119e3612b32565b90506020028101906119f591906131e9565b604051602001611a0591906131ff565b60405160208183030381529060405280519060200120811415611a625760405162461bcd60e51b815260206004820152601560248201527414dd185c9c1bdc9d125908191d5c1b1a58d85d1959605a1b60448201526064016104cd565b5080611a6d81612c0b565b91505061197b565b50611a81816001612c3d565b6008541015611ad9576008838383818110611a9e57611a9e612b32565b9050602002810190611ab091906131e9565b815460018101835560009283526020909220909160020201611ad282826132dd565b5050611b2d565b828282818110611aeb57611aeb612b32565b9050602002810190611afd91906131e9565b60088281548110611b1057611b10612b32565b90600052602060002090600202018181611b2a91906132dd565b50505b80611b3781612c0b565b915050611963565b50805b600854811015611ba3576008805480611b5d57611b5d6133fe565b60008281526020812060001990920191600283020190611b7d8282611ec9565b5060010180546001600160a01b0319169055905580611b9b81612c0b565b915050611b42565b505050565b611bb0611c21565b6001600160a01b038116611c155760405162461bcd60e51b815260206004820152602660248201527f4f776e61626c653a206e6577206f776e657220697320746865207a65726f206160448201526564647265737360d01b60648201526084016104cd565b611c1e81611c7b565b50565b6000546001600160a01b031633146112225760405162461bcd60e51b815260206004820181905260248201527f4f776e61626c653a2063616c6c6572206973206e6f7420746865206f776e657260448201526064016104cd565b600080546001600160a01b038381166001600160a01b0319831681178455604051919092169283917f8be0079c531659141344cd1fd0a4f28419497f9722a3daafe3b4186f6b6457e09190a35050565b604051806101000160405280600081526020016060815260200160608152602001606081526020016060815260200160006001600160a01b0316815260200160006001600160e01b0319168152602001611d506040518060a0016040528060008152602001600060ff1681526020016060815260200160608152602001606081525090565b905290565b828054611d6190612b48565b90600052602060002090601f016020900481019282611d835760008555611dc9565b82601f10611d9c57805160ff1916838001178555611dc9565b82800160010185558215611dc9579182015b82811115611dc9578251825591602001919060010190611dae565b50611dd5929150611eff565b5090565b828054611de590612b48565b90600052602060002090601f016020900481019282611e075760008555611dc9565b82601f10611e205782800160ff19823516178555611dc9565b82800160010185558215611dc9579182015b82811115611dc9578235825591602001919060010190611e32565b5080546000825560030290600052602060002090810190611c1e9190611f14565b60405180608001604052806060815260200160608152602001611e8f611f4a565b8152602001611d506040518060a0016040528060008152602001600060ff1681526020016060815260200160608152602001606081525090565b508054611ed590612b48565b6000825580601f10611ee5575050565b601f016020900490600052602060002090810190611c1e91905b5b80821115611dd55760008155600101611f00565b80821115611dd5576000611f288282611ec9565b506001810180546001600160a01b031916905560006002820155600301611f14565b60405180606001604052806060815260200160608152602001611d506040518060200160405280606081525090565b60005b83811015611f94578181015183820152602001611f7c565b83811115611fa3576000848401525b50505050565b60008151808452611fc1816020860160208601611f79565b601f01601f19169290920160200192915050565b634e487b7160e01b600052602160045260246000fd5b600082825180855260208086019550808260051b84010181860160005b8481101561205c57601f19868403018952815160408151600a811061202f5761202f611fd5565b8552908501518585018290529061204881860183611fa9565b9a86019a9450505090830190600101612008565b5090979650505050505050565b8051825260ff60208201511660208301526000604082015160a0604085015261209560a0850182611fa9565b9050606083015184820360608601526120ae8282611fa9565b915050608083015184820360808601526120c88282611fa9565b95945050505050565b6020815281516020820152600060208301516101008060408501526120fa610120850183611fa9565b91506040850151601f19808685030160608701526121188483611fa9565b935060608701519150808685030160808701526121358483611fa9565b935060808701519150808685030160a08701526121528483611feb565b935060a0870151915061217060c08701836001600160a01b03169052565b60c08701516001600160e01b0319811660e0880152915060e08701519150808685030183870152506121a28382612069565b9695505050505050565b6001600160a01b0381168114611c1e57600080fd5b6000602082840312156121d357600080fd5b81356121de816121ac565b9392505050565b600080604083850312156121f857600080fd5b50508035926020909101359150565b60006020828403121561221957600080fd5b81356001600160401b0381111561222f57600080fd5b8201602081850312156121de57600080fd5b60006020808301818452808551808352604092508286019150828160051b87010184880160005b838110156122b257888303603f190185528151805187855261228c88860182611fa9565b918901516001600160a01b03169489019490945294870194925090860190600101612268565b509098975050505050505050565b60008083601f8401126122d257600080fd5b5081356001600160401b038111156122e957600080fd5b60208301915083602082850101111561230157600080fd5b9250929050565b6001600160e01b031981168114611c1e57600080fd5b60008060008060006060868803121561233657600080fd5b85356001600160401b038082111561234d57600080fd5b61235989838a016122c0565b90975095506020880135915061236e82612308565b9093506040870135908082111561238457600080fd5b50612391888289016122c0565b969995985093965092949392505050565b6000806000806000806000806080898b0312156123be57600080fd5b88356001600160401b03808211156123d557600080fd5b6123e18c838d016122c0565b909a50985060208b01359150808211156123fa57600080fd5b6124068c838d016122c0565b909850965060408b013591508082111561241f57600080fd5b61242b8c838d016122c0565b909650945060608b013591508082111561244457600080fd5b506124518b828c016122c0565b999c989b5096995094979396929594505050565b60008060008060006060868803121561247d57600080fd5b8535945060208601356001600160401b038082111561249b57600080fd5b6124a789838a016122c0565b9096509450604088013591508082111561238457600080fd5b6000602082840312156124d257600080fd5b5035919050565b600081518084526020808501808196508360051b8101915082860160005b8581101561254a57828403895281516060815181875261251982880182611fa9565b838901516001600160a01b0316888a01526040938401519390970192909252505097840197908401906001016124f7565b5091979650505050505050565b6020815260006121de60208301846124d9565b60608152600084516080606084015261258660e08401826124d9565b602087810151608086015260408089015161ffff90811660a088015260609099015190981660c0860152840195909552505090151592019190915290565b61ffff81168114611c1e57600080fd5b600080604083850312156125e757600080fd5b82356125f2816121ac565b91506020830135612602816125c4565b809150509250929050565b6000806020838503121561262057600080fd5b82356001600160401b038082111561263757600080fd5b818501915085601f83011261264b57600080fd5b81358181111561265a57600080fd5b8660208260051b850101111561266f57600080fd5b60209290920196919550909350505050565b634e487b7160e01b600052604160045260246000fd5b604080519081016001600160401b03811182821017156126b9576126b9612681565b60405290565b60405160a081016001600160401b03811182821017156126b9576126b9612681565b60405161010081016001600160401b03811182821017156126b9576126b9612681565b604051608081016001600160401b03811182821017156126b9576126b9612681565b604051606081016001600160401b03811182821017156126b9576126b9612681565b604051601f8201601f191681016001600160401b038111828210171561277057612770612681565b604052919050565b60006001600160401b0382111561279157612791612681565b50601f01601f191660200190565b600082601f8301126127b057600080fd5b81516127c36127be82612778565b612748565b8181528460208386010111156127d857600080fd5b6127e9826020830160208701611f79565b949350505050565b60006001600160401b0382111561280a5761280a612681565b5060051b60200190565b600082601f83011261282557600080fd5b815160206128356127be836127f1565b82815260059290921b8401810191818101908684111561285457600080fd5b8286015b848110156128e35780516001600160401b03808211156128785760008081fd5b908801906040828b03601f19018113156128925760008081fd5b61289a612697565b87840151600a81106128ac5760008081fd5b81529083015190828211156128c15760008081fd5b6128cf8c898487010161279f565b818901528652505050918301918301612858565b509695505050505050565b80516128f9816121ac565b919050565b80516128f981612308565b805160ff811681146128f957600080fd5b600060a0828403121561292c57600080fd5b6129346126bf565b90508151815261294660208301612909565b602082015260408201516001600160401b038082111561296557600080fd5b6129718583860161279f565b6040840152606084015191508082111561298a57600080fd5b6129968583860161279f565b606084015260808401519150808211156129af57600080fd5b506129bc8482850161279f565b60808301525092915050565b6000602082840312156129da57600080fd5b81516001600160401b03808211156129f157600080fd5b908301906101008286031215612a0657600080fd5b612a0e6126e1565b82518152602083015182811115612a2457600080fd5b612a308782860161279f565b602083015250604083015182811115612a4857600080fd5b612a548782860161279f565b604083015250606083015182811115612a6c57600080fd5b612a788782860161279f565b606083015250608083015182811115612a9057600080fd5b612a9c87828601612814565b608083015250612aae60a084016128ee565b60a0820152612abf60c084016128fe565b60c082015260e083015182811115612ad657600080fd5b612ae28782860161291a565b60e08301525095945050505050565b600060208284031215612b0357600080fd5b81516121de816121ac565b6020808252600a9082015269139bdd08191bd8dad95960b21b604082015260600190565b634e487b7160e01b600052603260045260246000fd5b600181811c90821680612b5c57607f821691505b60208210811415612b7d57634e487b7160e01b600052602260045260246000fd5b50919050565b6000808354612b9181612b48565b60018281168015612ba95760018114612bba57612be9565b60ff19841687528287019450612be9565b8760005260208060002060005b85811015612be05781548a820152908401908201612bc7565b50505082870194505b50929695505050505050565b634e487b7160e01b600052601160045260246000fd5b6000600019821415612c1f57612c1f612bf5565b5060010190565b600082821015612c3857612c38612bf5565b500390565b60008219821115612c5057612c50612bf5565b500190565b6000808335601e19843603018112612c6c57600080fd5b8301803591506001600160401b03821115612c8657600080fd5b6020019150600581901b360382131561230157600080fd5b60008235605e19833603018112612cb457600080fd5b9190910192915050565b6000808335601e19843603018112612cd557600080fd5b8301803591506001600160401b03821115612cef57600080fd5b60200191503681900382131561230157600080fd5b600060208284031215612d1657600080fd5b81356001600160401b03811115612d2c57600080fd5b8201601f81018413612d3d57600080fd5b8035612d4b6127be82612778565b818152856020838501011115612d6057600080fd5b81602084016020830137600091810160200191909152949350505050565b80516128f9816125c4565b60006020808385031215612d9c57600080fd5b82516001600160401b0380821115612db357600080fd5b9084019060808287031215612dc757600080fd5b612dcf612704565b825182811115612dde57600080fd5b8301601f81018813612def57600080fd5b8051612dfd6127be826127f1565b81815260059190911b8201860190868101908a831115612e1c57600080fd5b8784015b83811015612ea757805187811115612e3757600080fd5b85016060818e03601f19011215612e4e5760008081fd5b612e56612726565b8a82015189811115612e685760008081fd5b612e768f8d8386010161279f565b825250604080830151612e88816121ac565b828d015260609290920151918101919091528352918801918801612e20565b5084525050508284015184820152612ec160408401612d7e565b6040820152612ed260608401612d7e565b60608201529695505050505050565b6020815260006121de6020830184611fa9565b8183823760009101908152919050565b81835281816020850137506000828201602090810191909152601f909101601f19169091010190565b6020815260006127e9602083018486612f04565b6000602080835260a0830160808285015280855480835260c08601915060c08160051b87010192506000878152848120815b838110156130345760bf1989870301855260608652828254612f9481612b48565b8060608a0152600180831660008114612fb45760018114612fc957612ff6565b60ff19841660808c015260a08b019450612ff6565b8688528b8820885b84811015612fed5781548d820160800152908301908d01612fd1565b8c016080019550505b508501546001600160a01b0316898b0181905291506130129050565b5060028301546040979097019690965293860193600390910190600101612f73565b505050506001860154604086015250600285015461ffff8082166060870152601082901c8116608087015290925050949350505050565b60006020808352835160808285015261308760a0850182611fa9565b905081850151601f1960408187850301818801526130a58484611feb565b9350808801519250606082888603018189015283518186526130c982870182611fa9565b905086850151868203888801526130e08282611fa9565b9584015187870397850197909752505093518584528051868501819052600581901b850183019591870194908382019060005b8181101561317b57838903603f1901835287518051868b52613137878c0182611fa9565b90508b8201516017811061314d5761314d611fd5565b8b8d0152908701518a8203888c0152906131678183611fa9565b9a5050509689019691890191600101613113565b5050505088015187850390920160808801525092506120c890508183612069565b6000602082840312156131ae57600080fd5b5051919050565b6000602082840312156131c757600080fd5b81516001600160401b038111156131dd57600080fd5b6127e98482850161279f565b60008235603e19833603018112612cb457600080fd5b6020815260008235601e1984360301811261321957600080fd5b830180356001600160401b0381111561323157600080fd5b80360385131561324057600080fd5b60406020850152613258606085018260208501612f04565b9150506020840135613269816121ac565b6001600160a01b03166040939093019290925250919050565b601f821115611ba357600081815260208120601f850160051c810160208610156132a95750805b601f850160051c820191505b818110156132c8578281556001016132b5565b505050505050565b600081356111e0816121ac565b8135601e198336030181126132f157600080fd5b820180356001600160401b0381111561330957600080fd5b6020813603818401131561331c57600080fd5b6133308261332a8654612b48565b86613282565b6000601f831160018114613366576000841561334e57508482018301355b600019600386901b1c1916600185901b1786556133c3565b600086815260209020601f19851690835b82811015613398578785018601358255938501936001909101908501613377565b50858210156133b75760001960f88760031b161c198585890101351681555b505060018460011b0186555b50506133f76133d38287016132d0565b6001860180546001600160a01b0319166001600160a01b0392909216919091179055565b5050505050565b634e487b7160e01b600052603160045260246000fdfea2646970667358221220e3940fd63019e0f8c7a0bb17065c286e345d086639bb2ad22fec620edba0430964736f6c634300080a0033",
  "immutableReferences": {},
  "source": "// SPDX-License-Identifier: MIT\npragma solidity ^0.8.9;\n\nimport \"@openzeppelin/contracts/access/Ownable.sol\";\nimport \"@hthuang/contracts/interfaces/ICrossChain.sol\";\nimport \"./CrossChain/ContractBase.sol\";\n\nimport \"./Starport.sol\";\nimport \"./interfaces/IStarDiamond.sol\";\nimport \"./interfaces/IStarshipFactory.sol\";\nimport \"./library/Bytes.sol\";\n\n/**\n * @title The main star port\n * @dev The star port which can deal with star diamond and create new starships\n */\ncontract MainStarport is Starport, IStarDiamond, IStarshipFactory {\n    struct StarportId {\n        string galaxy;\n        address starportId;\n    }\n\n    // Balances of star diamonds\n    mapping (address => uint256) private _starDiamondBalances;\n\n    // The newest starship id\n    uint256 public currentShipId;\n\n    // diamonds needed to create ship\n    uint256 public diamonds4Ship;\n\n    // Starports in the allience\n    StarportId[] private _starports;\n\n    constructor() {\n        diamonds4Ship = 8848;\n    }\n\n    // test only\n    function diamondFaucet() public {\n        _starDiamondBalances[msg.sender] = diamonds4Ship;\n    }\n\n    /**\n     * @notice See {IStarDiamond-synthesizeDiamond}\n     */\n    function synthesizeDiamond(uint shipId, uint amount) public override {\n        require(_starshipNFTContract.ownerOf(shipId) == msg.sender, \"Not owner of the ship\");\n        StarshipRecord storage ship = _dockedShips[shipId];\n        // To be continued, the assert will never be triggered\n        require(ship.used, \"Not docked\");\n\n        uint withdrawAmount = 0;\n        for (uint i = 0; i < _starports.length; i++) {\n            uint shardAmount = 0;\n            for (uint j = 0; j < ship.shipInfo.diamondShards.length; j++) {\n                if (ship.shipInfo.diamondShards[j].starportId == _starports[i].starportId &&\n                keccak256(bytes(ship.shipInfo.diamondShards[j].galaxy)) == keccak256(bytes(_starports[i].galaxy))) {\n                    shardAmount = ship.shipInfo.diamondShards[j].amount;\n                    break;\n                }\n            }\n\n            if (i == 0) {\n                withdrawAmount = shardAmount;\n            }\n            else {\n                if (withdrawAmount > shardAmount) {\n                    withdrawAmount = shardAmount;\n                }\n            }\n        }\n        \n        if (withdrawAmount > amount) {\n            withdrawAmount = amount;\n        }\n\n        for (uint256 i = 0; i < ship.shipInfo.diamondShards.length; ++i) {\n            ship.shipInfo.diamondShards[i].amount -= withdrawAmount;\n        }\n\n        _starDiamondBalances[msg.sender] += withdrawAmount;\n    }\n\n    /**\n     * @notice See {IStarDiamond-diamondBalanceOf}\n     */\n    function diamondBalanceOf(address account) public override view returns (uint) {\n        return _starDiamondBalances[account];\n    }\n\n    /**\n     * @notice See {IStarshipFactory-createStarship}\n     */\n    function createStarship(address _to, uint16 _type) public override {\n        require(_starDiamondBalances[msg.sender] >= diamonds4Ship, \"Not enough diamonds\");\n\n        _starDiamondBalances[msg.sender] -= diamonds4Ship;\n        \n        uint shipId = currentShipId++;\n        _starshipNFTContract.shipArrive(_to, shipId);\n\n        StarshipRecord storage newShip = _dockedShips[shipId];\n        newShip.shipInfo.shipId = shipId;\n        newShip.shipInfo.shipType = _type;\n        newShip.shipInfo.shipLevel = 1;\n        newShip.startBlock = block.number;\n        newShip.used = true;\n    }\n\n    /**\n     * @notice Set the starports information in the allience\n     */\n    function setStarports(StarportId[] calldata _ports) public onlyOwner {\n        for (uint i = 0; i < _ports.length; i++) {\n            // Check repetition\n            for (uint j = i + 1; j < _ports.length; j++) {\n                bytes32 hash = keccak256(abi.encode(_ports[i]));\n                require(hash != keccak256(abi.encode(_ports[j])), \"StarportId duplicated\");\n            }\n            if (_starports.length < i + 1) {\n                _starports.push(_ports[i]);\n            }\n            else {\n                _starports[i] = _ports[i];\n            }\n        }\n        \n        for (uint i = _ports.length; i < _starports.length; i++) {\n            _starports.pop();\n        }\n    }\n\n    /**\n     * @notice Returns starports information in the allience\n     */\n    function starports() public view returns (StarportId[] memory) {\n        return _starports;\n    }\n}",
  "sourcePath": "/home/dd512/star-trek-system-test/contracts/star-trek/contracts/contracts/MainStarport.sol",
  "compiler": {
    "name": "solc",
    "version": "0.8.10+commit.fc410830.Emscripten.clang"
  },
  "schemaVersion": "3.4.13",
  "updatedAt": "2023-05-08T08:54:28.823Z",
  "networkType": "ethereum",
  "devdoc": {
    "details": "The star port which can deal with star diamond and create new starships",
    "kind": "dev",
    "methods": {
      "owner()": {
        "details": "Returns the address of the current owner."
      },
      "registerDestContract(string,string,bytes,bytes)": {
        "params": {
          "_contractAddress": "- destination contract address",
          "_contractFuncName": "- contract function name",
          "_funcName": "- function name to be called",
          "_toChain": "- destination chain name"
        }
      },
      "renounceOwnership()": {
        "details": "Leaves the contract without owner. It will not be possible to call `onlyOwner` functions anymore. Can only be called by the current owner. NOTE: Renouncing ownership will leave the contract without an owner, thereby removing any functionality that is only available to the owner."
      },
      "setCrossChainContract(address)": {
        "params": {
          "_address": "- cross chain contract address"
        }
      },
      "transferOwnership(address)": {
        "details": "Transfers ownership of the contract to a new account (`newOwner`). Can only be called by the current owner."
      },
      "verify(string,bytes4,bytes)": {
        "params": {
          "_chainName": "- chain name of cross chain message",
          "_funcName": "- contract action name of cross chain message",
          "_sender": "- cross chain message sender"
        }
      }
    },
    "title": "The main star port",
    "version": 1
  },
  "userdoc": {
    "kind": "user",
    "methods": {
      "createStarship(address,uint16)": {
        "notice": "See {IStarshipFactory-createStarship}"
      },
      "diamondBalanceOf(address)": {
        "notice": "See {IStarDiamond-diamondBalanceOf}"
      },
      "dock(((string,uint8,bytes)[]))": {
        "notice": "See {IStarport-dock}"
      },
      "registerDestContract(string,string,bytes,bytes)": {
        "notice": "Register destination contract info"
      },
      "setCrossChainContract(address)": {
        "notice": "Set cross chain contract"
      },
      "setStarports((string,address)[])": {
        "notice": "Set the starports information in the allience"
      },
      "setStarshipNFTAddress(address)": {
        "notice": "Sets the address of starship NFT contract"
      },
      "settleReward(uint256)": {
        "notice": "Settles rewards"
      },
      "shardsOfStarship(uint256)": {
        "notice": "Returns diamond shards of a starship"
      },
      "starports()": {
        "notice": "Returns starports information in the allience"
      },
      "synthesizeDiamond(uint256,uint256)": {
        "notice": "See {IStarDiamond-synthesizeDiamond}"
      },
      "trek(uint256,bytes,string)": {
        "notice": "See {IStarport-trek}"
      },
      "verify(string,bytes4,bytes)": {
        "notice": "This verify method will be invoked by the CrossChain contract automatically, ensure that only registered contract(registerSourceContract) calls are allowed"
      }
    },
    "version": 1
  }
}