{
  "contractName": "Starport",
  "abi": [
    {
      "anonymous": false,
      "inputs": [
        {
          "indexed": true,
          "internalType": "address",
          "name": "previousOwner",
          "type": "address"
        },
        {
          "indexed": true,
          "internalType": "address",
          "name": "newOwner",
          "type": "address"
        }
      ],
      "name": "OwnershipTransferred",
      "type": "event"
    },
    {
      "inputs": [
        {
          "internalType": "uint256",
          "name": "",
          "type": "uint256"
        }
      ],
      "name": "_dockedShips",
      "outputs": [
        {
          "components": [
            {
              "components": [
                {
                  "internalType": "string",
                  "name": "galaxy",
                  "type": "string"
                },
                {
                  "internalType": "address",
                  "name": "starportId",
                  "type": "address"
                },
                {
                  "internalType": "uint256",
                  "name": "amount",
                  "type": "uint256"
                }
              ],
              "internalType": "struct DiamondShard[]",
              "name": "diamondShards",
              "type": "tuple[]"
            },
            {
              "internalType": "uint256",
              "name": "shipId",
              "type": "uint256"
            },
            {
              "internalType": "uint16",
              "name": "shipType",
              "type": "uint16"
            },
            {
              "internalType": "uint16",
              "name": "shipLevel",
              "type": "uint16"
            }
          ],
          "internalType": "struct StarshipInfo",
          "name": "shipInfo",
          "type": "tuple"
        },
        {
          "internalType": "uint256",
          "name": "startBlock",
          "type": "uint256"
        },
        {
          "internalType": "bool",
          "name": "used",
          "type": "bool"
        }
      ],
      "stateMutability": "view",
      "type": "function",
      "constant": true
    },
    {
      "inputs": [],
      "name": "crossChainContract",
      "outputs": [
        {
          "internalType": "contract ICrossChain",
          "name": "",
          "type": "address"
        }
      ],
      "stateMutability": "view",
      "type": "function",
      "constant": true
    },
    {
      "inputs": [],
      "name": "getContext",
      "outputs": [
        {
          "components": [
            {
              "internalType": "uint256",
              "name": "id",
              "type": "uint256"
            },
            {
              "internalType": "string",
              "name": "fromChain",
              "type": "string"
            },
            {
              "internalType": "bytes",
              "name": "sender",
              "type": "bytes"
            },
            {
              "internalType": "bytes",
              "name": "signer",
              "type": "bytes"
            },
            {
              "components": [
                {
                  "internalType": "enum SQoSType",
                  "name": "t",
                  "type": "uint8"
                },
                {
                  "internalType": "bytes",
                  "name": "v",
                  "type": "bytes"
                }
              ],
              "internalType": "struct SQoS[]",
              "name": "sqos",
              "type": "tuple[]"
            },
            {
              "internalType": "address",
              "name": "contractAddress",
              "type": "address"
            },
            {
              "internalType": "bytes4",
              "name": "action",
              "type": "bytes4"
            },
            {
              "components": [
                {
                  "internalType": "uint256",
                  "name": "id",
                  "type": "uint256"
                },
                {
                  "internalType": "uint8",
                  "name": "sessionType",
                  "type": "uint8"
                },
                {
                  "internalType": "bytes",
                  "name": "callback",
                  "type": "bytes"
                },
                {
                  "internalType": "bytes",
                  "name": "commitment",
                  "type": "bytes"
                },
                {
                  "internalType": "bytes",
                  "name": "answer",
                  "type": "bytes"
                }
              ],
              "internalType": "struct Session",
              "name": "session",
              "type": "tuple"
            }
          ],
          "internalType": "struct SimplifiedMessage",
          "name": "",
          "type": "tuple"
        }
      ],
      "stateMutability": "view",
      "type": "function",
      "constant": true
    },
    {
      "inputs": [],
      "name": "owner",
      "outputs": [
        {
          "internalType": "address",
          "name": "",
          "type": "address"
        }
      ],
      "stateMutability": "view",
      "type": "function",
      "constant": true
    },
    {
      "inputs": [],
      "name": "renounceOwnership",
      "outputs": [],
      "stateMutability": "nonpayable",
      "type": "function"
    },
    {
      "inputs": [
        {
          "internalType": "address",
          "name": "_address",
          "type": "address"
        }
      ],
      "name": "setCrossChainContract",
      "outputs": [],
      "stateMutability": "nonpayable",
      "type": "function"
    },
    {
      "inputs": [
        {
          "internalType": "address",
          "name": "newOwner",
          "type": "address"
        }
      ],
      "name": "transferOwnership",
      "outputs": [],
      "stateMutability": "nonpayable",
      "type": "function"
    },
    {
      "inputs": [
        {
          "internalType": "string",
          "name": "_chainName",
          "type": "string"
        },
        {
          "internalType": "bytes4",
          "name": "_funcName",
          "type": "bytes4"
        },
        {
          "internalType": "bytes",
          "name": "_sender",
          "type": "bytes"
        }
      ],
      "name": "verify",
      "outputs": [
        {
          "internalType": "bool",
          "name": "",
          "type": "bool"
        }
      ],
      "stateMutability": "view",
      "type": "function",
      "constant": true
    },
    {
      "inputs": [
        {
          "internalType": "uint256",
          "name": "_id",
          "type": "uint256"
        }
      ],
      "name": "shardsOfStarship",
      "outputs": [
        {
          "components": [
            {
              "internalType": "string",
              "name": "galaxy",
              "type": "string"
            },
            {
              "internalType": "address",
              "name": "starportId",
              "type": "address"
            },
            {
              "internalType": "uint256",
              "name": "amount",
              "type": "uint256"
            }
          ],
          "internalType": "struct DiamondShard[]",
          "name": "shards",
          "type": "tuple[]"
        }
      ],
      "stateMutability": "view",
      "type": "function",
      "constant": true
    },
    {
      "inputs": [
        {
          "components": [
            {
              "components": [
                {
                  "internalType": "string",
                  "name": "name",
                  "type": "string"
                },
                {
                  "internalType": "enum MsgType",
                  "name": "msgType",
                  "type": "uint8"
                },
                {
                  "internalType": "bytes",
                  "name": "value",
                  "type": "bytes"
                }
              ],
              "internalType": "struct PayloadItem[]",
              "name": "items",
              "type": "tuple[]"
            }
          ],
          "internalType": "struct Payload",
          "name": "_payload",
          "type": "tuple"
        }
      ],
      "name": "dock",
      "outputs": [
        {
          "internalType": "uint256",
          "name": "",
          "type": "uint256"
        }
      ],
      "stateMutability": "nonpayable",
      "type": "function"
    },
    {
      "inputs": [
        {
          "internalType": "uint256",
          "name": "_id",
          "type": "uint256"
        },
        {
          "internalType": "bytes",
          "name": "_receiver",
          "type": "bytes"
        },
        {
          "internalType": "string",
          "name": "_toChain",
          "type": "string"
        }
      ],
      "name": "trek",
      "outputs": [],
      "stateMutability": "nonpayable",
      "type": "function"
    },
    {
      "inputs": [
        {
          "internalType": "uint256",
          "name": "_start_block",
          "type": "uint256"
        }
      ],
      "name": "calcReward",
      "outputs": [
        {
          "internalType": "uint256",
          "name": "",
          "type": "uint256"
        }
      ],
      "stateMutability": "view",
      "type": "function",
      "constant": true
    },
    {
      "inputs": [
        {
          "internalType": "uint256",
          "name": "_id",
          "type": "uint256"
        }
      ],
      "name": "settleReward",
      "outputs": [],
      "stateMutability": "nonpayable",
      "type": "function"
    },
    {
      "inputs": [
        {
          "internalType": "address",
          "name": "_address",
          "type": "address"
        }
      ],
      "name": "setStarshipNFTAddress",
      "outputs": [],
      "stateMutability": "nonpayable",
      "type": "function"
    },
    {
      "inputs": [
        {
          "internalType": "string",
          "name": "_funcName",
          "type": "string"
        },
        {
          "internalType": "string",
          "name": "_toChain",
          "type": "string"
        },
        {
          "internalType": "bytes",
          "name": "_contractAddress",
          "type": "bytes"
        },
        {
          "internalType": "bytes",
          "name": "_contractFuncName",
          "type": "bytes"
        }
      ],
      "name": "registerDestContract",
      "outputs": [],
      "stateMutability": "nonpayable",
      "type": "function"
    }
  ],
  "bytecode": "0x608060405234801561001057600080fd5b5061001a3361001f565b61006f565b600080546001600160a01b038381166001600160a01b0319831681178455604051919092169283917f8be0079c531659141344cd1fd0a4f28419497f9722a3daafe3b4186f6b6457e09190a35050565b61283f8061007e6000396000f3fe608060405234801561001057600080fd5b50600436106100f55760003560e01c80636cd9497711610097578063a0abcc8c11610066578063a0abcc8c14610203578063c981a90214610223578063dbc90de114610245578063f2fde38b1461025857600080fd5b80636cd94977146101b0578063715018a6146101c357806372f72af5146101cb5780638da5cb5b146101de57600080fd5b80634944e686116100d35780634944e6861461014e5780634fdd0593146101775780635236e0c11461018a578063544c465c1461019d57600080fd5b8063127f0f07146100fa57806318d72b54146101185780633da987e61461012d575b600080fd5b61010261026b565b60405161010f9190611856565b60405180910390f35b61012b610126366004611946565b6102f3565b005b61014061013b36600461196a565b61031d565b60405190815260200161010f565b61016761015c366004611a02565b600195945050505050565b604051901515815260200161010f565b61012b610185366004611a86565b610626565b61012b610198366004611b49565b6106aa565b6101406101ab366004611ba4565b610ce3565b61012b6101be366004611946565b610d03565b61012b610d2d565b61012b6101d9366004611ba4565b610d41565b6000546001600160a01b03165b6040516001600160a01b03909116815260200161010f565b610216610211366004611ba4565b610ff6565b60405161010f9190611c3b565b610236610231366004611ba4565b6111c8565b60405161010f93929190611c4e565b6001546101eb906001600160a01b031681565b61012b610266366004611946565b611329565b61027361144c565b600160009054906101000a90046001600160a01b03166001600160a01b0316639af7a48c6040518163ffffffff1660e01b8152600401600060405180830381865afa1580156102c6573d6000803e3d6000fd5b505050506040513d6000823e601f3d908101601f191682016040526102ee9190810190611fef565b905090565b6102fb6113a2565b600180546001600160a01b0319166001600160a01b0392909216919091179055565b6001546000906001600160a01b0316331461033a57506064919050565b60006103468380612118565b600081811061035757610357612161565b90506020028101906103699190612177565b610377906040810190612197565b81019061038491906121dd565b905060006103928480612118565b60018181106103a3576103a3612161565b90506020028101906103b59190612177565b6103c3906040810190612197565b8101906103d09190611ba4565b905060006103de8580612118565b60028181106103ef576103ef612161565b90506020028101906104019190612177565b61040f906040810190612197565b81019061041c91906121dd565b80602001905181019061042f9190612269565b600354604051632129372760e11b81529192506001600160a01b0316906360f776fb9073__Bytes_________________________________906342526e4e9061047c9088906004016123c1565b602060405180830381865af4158015610499573d6000803e3d6000fd5b505050506040513d601f19601f820116820180604052508101906104bd91906123d4565b6040516001600160e01b031960e084901b1681526001600160a01b03909116600482015260248101859052604401600060405180830381600087803b15801561050557600080fd5b505af1158015610519573d6000803e3d6000fd5b50505060008381526002602081815260408084209186015160018301558501519181018054606087015161ffff908116620100000263ffffffff199092169416939093179290921790915591505b82515181101561060657825180518391908390811061058857610588612161565b6020908102919091018101518254600181018455600093845292829020815180519294600302909101926105c1928492909101906114d6565b5060208201516001820180546001600160a01b0319166001600160a01b03909216919091179055604090910151600290910155806105fe81612407565b915050610567565b50436003820155600401805460ff19166001179055506000949350505050565b61062e6113a2565b600060048787604051610642929190612422565b908152602001604051809103902090506000818a8a604051610665929190612422565b908152604051908190036020019020905061068181878761155a565b5061069060018201858561155a565b50600201805460ff19166001179055505050505050505050565b6000858152600260205260409020600481015460ff166106e55760405162461bcd60e51b81526004016106dc90612432565b60405180910390fd5b6003546040516331a9108f60e11b81526004810188905233916001600160a01b031690636352211e90602401602060405180830381865afa15801561072e573d6000803e3d6000fd5b505050506040513d601f19601f8201168201806040525081019061075291906123d4565b6001600160a01b0316146107945760405162461bcd60e51b81526020600482015260096024820152682737ba1037bbb732b960b91b60448201526064016106dc565b6000600484846040516107a8929190612422565b90815260405190819003602001812063646f636b60e01b825291506000908290600401908152604051908190036020019020600281015490915060ff166108295760405162461bcd60e51b81526020600482015260156024820152741858dd1a5bdb881b9bdd081c9959da5cdd195c9959605a1b60448201526064016106dc565b61083288610d41565b604080516020810182526060815281516003808252608082019093529091816020015b60408051606080820183528082526000602083015291810191909152815260200190600190039081610855575050808252805160009190829061089a5761089a612161565b60209081029190910181015160408051808201825260088152673932b1b2b4bb32b960c11b818501528252600c82840152519092506108dd918b918b9101612456565b60408051601f198184030181529181528201528151805160009190600190811061090957610909612161565b6020908102919091018101516040805180820190915260028152611a5960f21b8184015281529150600590820181905250604080516fffffffffffffffffffffffffffffffff8d1660208201520160408051601f198184030181529181528201528251805160009190600290811061098357610983612161565b602090810291909101810151604080518082018252600c8082526b73746172736869704461746160a01b8286015290835282840152519092506109c8918991016124c0565b60408051601f19818403018152908290526109e5916020016123c1565b60408051601f198184030181529181528281019190915260008d81526002602052908120908181610a1682826115ce565b506000600182018190556002909101805463ffffffff191690556003838101919091556004928301805460ff191690555460405163852b3fbd60e01b81529283018f90526001600160a01b03169163852b3fbd9150602401600060405180830381600087803b158015610a8857600080fd5b505af1158015610a9c573d6000803e3d6000fd5b50505050610aa86115ef565b89898080601f016020809104026020016040519081016040528093929190818152602001838380828437600092018290525093855250506040805160a0810182528381526020808201859052825180820184528581528284015282518082018452858152606080840191909152835191820184529481526080820152838501528051928301905250865481908890610b3f90612485565b80601f0160208091040260200160405190810160405280929190818152602001828054610b6b90612485565b8015610bb85780601f10610b8d57610100808354040283529160200191610bb8565b820191906000526020600020905b815481529060010190602001808311610b9b57829003601f168201915b50505050508152602001876001018054610bd190612485565b80601f0160208091040260200160405190810160405280929190818152602001828054610bfd90612485565b8015610c4a5780601f10610c1f57610100808354040283529160200191610c4a565b820191906000526020600020905b815481529060010190602001808311610c2d57829003601f168201915b50505091835250506020018690526040808301919091526001549051632f260fd760e01b81526001600160a01b0390911690632f260fd790610c909084906004016125ea565b6020604051808303816000875af1158015610caf573d6000803e3d6000fd5b505050506040513d601f19601f82011682018060405250810190610cd3919061271b565b5050505050505050505050505050565b6000814311610cf3576000610cfd565b610cfd8243612734565b92915050565b610d0b6113a2565b600380546001600160a01b0319166001600160a01b0392909216919091179055565b610d356113a2565b610d3f60006113fc565b565b6000818152600260205260409020600481015460ff16610d735760405162461bcd60e51b81526004016106dc90612432565b6000805b8254811015610ee357600160009054906101000a90046001600160a01b03166001600160a01b0316631c93b03a6040518163ffffffff1660e01b81526004016000604051808303816000875af1158015610dd5573d6000803e3d6000fd5b505050506040513d6000823e601f3d908101601f19168201604052610dfd919081019061274b565b80516020909101208354849083908110610e1957610e19612161565b9060005260206000209060030201600001604051610e37919061277f565b6040518091039020148015610e7c575082543090849083908110610e5d57610e5d612161565b60009182526020909120600160039092020101546001600160a01b0316145b15610ed15760019150610e928360030154610ce3565b8354849083908110610ea657610ea6612161565b90600052602060002090600302016002016000828254610ec691906127f1565b90915550610ee39050565b80610edb81612407565b915050610d77565b5080610feb576040805160608101808352600154630e49d81d60e11b9091529151849282916001600160a01b0390911690631c93b03a90606480850191600091818703018183875af1158015610f3d573d6000803e3d6000fd5b505050506040513d6000823e601f3d908101601f19168201604052610f65919081019061274b565b8152602001306001600160a01b03168152602001610f868560030154610ce3565b905281546001810183556000928352602092839020825180519394600390930290910192610fb792849201906114d6565b5060208201516001820180546001600160a01b0319166001600160a01b039092169190911790556040909101516002909101555b504360039091015550565b600081815260026020526040902060048101546060919060ff1661102c5760405162461bcd60e51b81526004016106dc90612432565b80546001600160401b0381111561104557611045611ca8565b6040519080825280602002602001820160405280156110a357816020015b61109060405180606001604052806060815260200160006001600160a01b03168152602001600081525090565b8152602001906001900390816110635790505b50915060005b81548110156111c15781548290829081106110c6576110c6612161565b90600052602060002090600302016040518060600160405290816000820180546110ef90612485565b80601f016020809104026020016040519081016040528092919081815260200182805461111b90612485565b80156111685780601f1061113d57610100808354040283529160200191611168565b820191906000526020600020905b81548152906001019060200180831161114b57829003601f168201915b505050918352505060018201546001600160a01b0316602082015260029091015460409091015283518490839081106111a3576111a3612161565b602002602001018190525080806111b990612407565b9150506110a9565b5050919050565b60026020908152600091825260408083208151815460a09481028201850190935260808101838152919490938593859392859285015b828210156112e5578382906000526020600020906003020160405180606001604052908160008201805461123190612485565b80601f016020809104026020016040519081016040528092919081815260200182805461125d90612485565b80156112aa5780601f1061127f576101008083540402835291602001916112aa565b820191906000526020600020905b81548152906001019060200180831161128d57829003601f168201915b50505091835250506001828101546001600160a01b0316602080840191909152600290930154604090920191909152918352920191016111fe565b505050908252506001820154602082015260029091015461ffff80821660408401526201000090910416606090910152600382015460049092015490919060ff1683565b6113316113a2565b6001600160a01b0381166113965760405162461bcd60e51b815260206004820152602660248201527f4f776e61626c653a206e6577206f776e657220697320746865207a65726f206160448201526564647265737360d01b60648201526084016106dc565b61139f816113fc565b50565b6000546001600160a01b03163314610d3f5760405162461bcd60e51b815260206004820181905260248201527f4f776e61626c653a2063616c6c6572206973206e6f7420746865206f776e657260448201526064016106dc565b600080546001600160a01b038381166001600160a01b0319831681178455604051919092169283917f8be0079c531659141344cd1fd0a4f28419497f9722a3daafe3b4186f6b6457e09190a35050565b604051806101000160405280600081526020016060815260200160608152602001606081526020016060815260200160006001600160a01b0316815260200160006001600160e01b03191681526020016114d16040518060a0016040528060008152602001600060ff1681526020016060815260200160608152602001606081525090565b905290565b8280546114e290612485565b90600052602060002090601f016020900481019282611504576000855561154a565b82601f1061151d57805160ff191683800117855561154a565b8280016001018555821561154a579182015b8281111561154a57825182559160200191906001019061152f565b5061155692915061164a565b5090565b82805461156690612485565b90600052602060002090601f016020900481019282611588576000855561154a565b82601f106115a15782800160ff1982351617855561154a565b8280016001018555821561154a579182015b8281111561154a5782358255916020019190600101906115b3565b508054600082556003029060005260206000209081019061139f919061165f565b60405180608001604052806060815260200160608152602001611610611695565b81526020016114d16040518060a0016040528060008152602001600060ff1681526020016060815260200160608152602001606081525090565b5b80821115611556576000815560010161164b565b8082111561155657600061167382826116c4565b506001810180546001600160a01b03191690556000600282015560030161165f565b604051806060016040528060608152602001606081526020016114d16040518060200160405280606081525090565b5080546116d090612485565b6000825580601f106116e0575050565b601f01602090049060005260206000209081019061139f919061164a565b60005b83811015611719578181015183820152602001611701565b83811115611728576000848401525b50505050565b600081518084526117468160208601602086016116fe565b601f01601f19169290920160200192915050565b634e487b7160e01b600052602160045260246000fd5b600082825180855260208086019550808260051b84010181860160005b848110156117e157601f19868403018952815160408151600a81106117b4576117b461175a565b855290850151858501829052906117cd8186018361172e565b9a86019a945050509083019060010161178d565b5090979650505050505050565b8051825260ff60208201511660208301526000604082015160a0604085015261181a60a085018261172e565b905060608301518482036060860152611833828261172e565b9150506080830151848203608086015261184d828261172e565b95945050505050565b60208152815160208201526000602083015161010080604085015261187f61012085018361172e565b91506040850151601f198086850301606087015261189d848361172e565b935060608701519150808685030160808701526118ba848361172e565b935060808701519150808685030160a08701526118d78483611770565b935060a087015191506118f560c08701836001600160a01b03169052565b60c08701516001600160e01b0319811660e0880152915060e087015191508086850301838701525061192783826117ee565b9695505050505050565b6001600160a01b038116811461139f57600080fd5b60006020828403121561195857600080fd5b813561196381611931565b9392505050565b60006020828403121561197c57600080fd5b81356001600160401b0381111561199257600080fd5b82016020818503121561196357600080fd5b60008083601f8401126119b657600080fd5b5081356001600160401b038111156119cd57600080fd5b6020830191508360208285010111156119e557600080fd5b9250929050565b6001600160e01b03198116811461139f57600080fd5b600080600080600060608688031215611a1a57600080fd5b85356001600160401b0380821115611a3157600080fd5b611a3d89838a016119a4565b909750955060208801359150611a52826119ec565b90935060408701359080821115611a6857600080fd5b50611a75888289016119a4565b969995985093965092949392505050565b6000806000806000806000806080898b031215611aa257600080fd5b88356001600160401b0380821115611ab957600080fd5b611ac58c838d016119a4565b909a50985060208b0135915080821115611ade57600080fd5b611aea8c838d016119a4565b909850965060408b0135915080821115611b0357600080fd5b611b0f8c838d016119a4565b909650945060608b0135915080821115611b2857600080fd5b50611b358b828c016119a4565b999c989b5096995094979396929594505050565b600080600080600060608688031215611b6157600080fd5b8535945060208601356001600160401b0380821115611b7f57600080fd5b611b8b89838a016119a4565b90965094506040880135915080821115611a6857600080fd5b600060208284031215611bb657600080fd5b5035919050565b600081518084526020808501808196508360051b8101915082860160005b85811015611c2e578284038952815160608151818752611bfd8288018261172e565b838901516001600160a01b0316888a0152604093840151939097019290925250509784019790840190600101611bdb565b5091979650505050505050565b6020815260006119636020830184611bbd565b606081526000845160806060840152611c6a60e0840182611bbd565b602087810151608086015260408089015161ffff90811660a088015260609099015190981660c0860152840195909552505090151592019190915290565b634e487b7160e01b600052604160045260246000fd5b604080519081016001600160401b0381118282101715611ce057611ce0611ca8565b60405290565b60405160a081016001600160401b0381118282101715611ce057611ce0611ca8565b60405161010081016001600160401b0381118282101715611ce057611ce0611ca8565b604051608081016001600160401b0381118282101715611ce057611ce0611ca8565b604051606081016001600160401b0381118282101715611ce057611ce0611ca8565b604051601f8201601f191681016001600160401b0381118282101715611d9757611d97611ca8565b604052919050565b60006001600160401b03821115611db857611db8611ca8565b50601f01601f191660200190565b600082601f830112611dd757600080fd5b8151611dea611de582611d9f565b611d6f565b818152846020838601011115611dff57600080fd5b611e108260208301602087016116fe565b949350505050565b60006001600160401b03821115611e3157611e31611ca8565b5060051b60200190565b600082601f830112611e4c57600080fd5b81516020611e5c611de583611e18565b82815260059290921b84018101918181019086841115611e7b57600080fd5b8286015b84811015611f0a5780516001600160401b0380821115611e9f5760008081fd5b908801906040828b03601f1901811315611eb95760008081fd5b611ec1611cbe565b87840151600a8110611ed35760008081fd5b8152908301519082821115611ee85760008081fd5b611ef68c8984870101611dc6565b818901528652505050918301918301611e7f565b509695505050505050565b8051611f2081611931565b919050565b8051611f20816119ec565b805160ff81168114611f2057600080fd5b600060a08284031215611f5357600080fd5b611f5b611ce6565b905081518152611f6d60208301611f30565b602082015260408201516001600160401b0380821115611f8c57600080fd5b611f9885838601611dc6565b60408401526060840151915080821115611fb157600080fd5b611fbd85838601611dc6565b60608401526080840151915080821115611fd657600080fd5b50611fe384828501611dc6565b60808301525092915050565b60006020828403121561200157600080fd5b81516001600160401b038082111561201857600080fd5b90830190610100828603121561202d57600080fd5b612035611d08565b8251815260208301518281111561204b57600080fd5b61205787828601611dc6565b60208301525060408301518281111561206f57600080fd5b61207b87828601611dc6565b60408301525060608301518281111561209357600080fd5b61209f87828601611dc6565b6060830152506080830151828111156120b757600080fd5b6120c387828601611e3b565b6080830152506120d560a08401611f15565b60a08201526120e660c08401611f25565b60c082015260e0830151828111156120fd57600080fd5b61210987828601611f41565b60e08301525095945050505050565b6000808335601e1984360301811261212f57600080fd5b8301803591506001600160401b0382111561214957600080fd5b6020019150600581901b36038213156119e557600080fd5b634e487b7160e01b600052603260045260246000fd5b60008235605e1983360301811261218d57600080fd5b9190910192915050565b6000808335601e198436030181126121ae57600080fd5b8301803591506001600160401b038211156121c857600080fd5b6020019150368190038213156119e557600080fd5b6000602082840312156121ef57600080fd5b81356001600160401b0381111561220557600080fd5b8201601f8101841361221657600080fd5b8035612224611de582611d9f565b81815285602083850101111561223957600080fd5b81602084016020830137600091810160200191909152949350505050565b805161ffff81168114611f2057600080fd5b6000602080838503121561227c57600080fd5b82516001600160401b038082111561229357600080fd5b90840190608082870312156122a757600080fd5b6122af611d2b565b8251828111156122be57600080fd5b8301601f810188136122cf57600080fd5b80516122dd611de582611e18565b81815260059190911b8201860190868101908a8311156122fc57600080fd5b8784015b838110156123875780518781111561231757600080fd5b85016060818e03601f1901121561232e5760008081fd5b612336611d4d565b8a820151898111156123485760008081fd5b6123568f8d83860101611dc6565b82525060408083015161236881611931565b828d015260609290920151918101919091528352918801918801612300565b50845250505082840151848201526123a160408401612257565b60408201526123b260608401612257565b60608201529695505050505050565b602081526000611963602083018461172e565b6000602082840312156123e657600080fd5b815161196381611931565b634e487b7160e01b600052601160045260246000fd5b600060001982141561241b5761241b6123f1565b5060010190565b8183823760009101908152919050565b6020808252600a9082015269139bdd08191bd8dad95960b21b604082015260600190565b60208152816020820152818360408301376000818301604090810191909152601f909201601f19160101919050565b600181811c9082168061249957607f821691505b602082108114156124ba57634e487b7160e01b600052602260045260246000fd5b50919050565b6000602080835260a0830160808285015280855480835260c08601915060c08160051b87010192506000878152848120815b838110156125b35760bf198987030185526060865282825461251381612485565b8060608a0152600180831660008114612533576001811461254857612575565b60ff19841660808c015260a08b019450612575565b8688528b8820885b8481101561256c5781548d820160800152908301908d01612550565b8c016080019550505b508501546001600160a01b0316898b0181905291506125919050565b50600283015460409790970196909652938601936003909101906001016124f2565b505050506001860154604086015250600285015461ffff8082166060870152601082901c8116608087015290925050949350505050565b60006020808352835160808285015261260660a085018261172e565b905081850151601f1960408187850301818801526126248484611770565b9350808801519250606082888603018189015283518186526126488287018261172e565b9050868501518682038888015261265f828261172e565b9584015187870397850197909752505093518584528051868501819052600581901b850183019591870194908382019060005b818110156126fa57838903603f1901835287518051868b526126b6878c018261172e565b90508b820151601781106126cc576126cc61175a565b8b8d0152908701518a8203888c0152906126e6818361172e565b9a5050509689019691890191600101612692565b50505050880151878503909201608088015250925061184d905081836117ee565b60006020828403121561272d57600080fd5b5051919050565b600082821015612746576127466123f1565b500390565b60006020828403121561275d57600080fd5b81516001600160401b0381111561277357600080fd5b611e1084828501611dc6565b600080835461278d81612485565b600182811680156127a557600181146127b6576127e5565b60ff198416875282870194506127e5565b8760005260208060002060005b858110156127dc5781548a8201529084019082016127c3565b50505082870194505b50929695505050505050565b60008219821115612804576128046123f1565b50019056fea264697066735822122033e13e58fb9877a92dc0d2b8cb6041ed952ba91e911f895cfb5dabb39a232a9164736f6c634300080a0033",
  "immutableReferences": {},
  "source": "// SPDX-License-Identifier: MIT\n\npragma solidity ^0.8.9;\n\nimport \"@openzeppelin/contracts/access/Ownable.sol\";\nimport \"@hthuang/contracts/interfaces/ICrossChain.sol\";\nimport \"./CrossChain/ContractBase.sol\";\n\nimport \"./interfaces/IStarshipNFT.sol\";\nimport \"./interfaces/IStarport.sol\";\nimport \"./library/Bytes.sol\";\n\nuint256 constant CALLER_NOT_CROSS_CHAIN_CONTRACT = 100;\n\nstruct DiamondShard {\n    string galaxy;\n    address starportId;\n    uint256 amount;\n}\n\n/**\n * @dev to be continued, shipType and shipLeve should be stored metadata\n */\nstruct StarshipInfo {\n    // from star port id to collected resources on the star\n    DiamondShard[] diamondShards;\n\n    // the id of the ship, the same as the `tokenId`\n    uint256 shipId;\n\n    // the type of the ship, which determines the image of the ship\n    uint16 shipType;\n\n    // the level of the ship, which influents the collection speed of the ship\n    uint16 shipLevel;\n}\n\n// Used to record the information of ships docked in the starport\nstruct StarshipRecord {\n    // information of a ship\n    StarshipInfo shipInfo;\n    // the block height when arriving the star\n    uint256 startBlock;\n    // used to check if an element exists\n    bool used;\n}\n\n/**\n * @title The contract for starport\n * @dev Implement the workflow of the star trek on one chain\n */\ncontract Starport is IStarport, Ownable, ContractBase {\n    // Destination contract info\n    struct DestnContract {\n        bytes contractAddress; // destination contract address\n        bytes funcName; // destination contract action name\n        bool used;\n    }\n\n    // from tokenId (shipId) to the information of starships\n    // to be continued, there should be a method to get docked ship info\n    mapping (uint256 => StarshipRecord) public _dockedShips;\n\n    IStarship internal _starshipNFTContract;\n\n    // Cross-chain destination contract map\n    mapping(string => mapping(string => DestnContract)) private destnContractMap;\n\n    /**\n     * @notice Returns diamond shards of a starship\n     */\n    function shardsOfStarship(uint256 _id) public view returns (DiamondShard[] memory shards) {\n        StarshipRecord storage ship = _dockedShips[_id];\n        require(ship.used, \"Not docked\");\n\n        shards = new DiamondShard[](ship.shipInfo.diamondShards.length);\n        for (uint i = 0; i < ship.shipInfo.diamondShards.length; i++) {\n            shards[i] = ship.shipInfo.diamondShards[i];\n        }\n    }\n\n    /**\n     * @notice See {IStarport-dock}\n     */\n    function dock(Payload calldata _payload) external override returns (uint256) {\n        if (msg.sender != address(crossChainContract)) {\n            return CALLER_NOT_CROSS_CHAIN_CONTRACT;\n        }\n\n        (bytes memory receiver) = abi.decode(_payload.items[0].value, (bytes));\n        (uint256 shipId) = abi.decode(_payload.items[1].value, (uint256));\n        // to be continued, struct is not supported, so shipInfo should be expanded\n        (StarshipInfo memory shipInfo) = abi.decode(abi.decode(_payload.items[2].value, (bytes)), (StarshipInfo));\n\n        // mint ship nft first\n        _starshipNFTContract.shipArrive(Bytes.bytesToAddress(receiver), shipId);\n\n        // after successfully mint\n        StarshipRecord storage newShip = _dockedShips[shipId];\n        newShip.shipInfo.shipId = shipInfo.shipId;\n        newShip.shipInfo.shipType = shipInfo.shipType;\n        newShip.shipInfo.shipLevel = shipInfo.shipLevel;\n        for (uint i = 0; i < shipInfo.diamondShards.length; i++) {\n            newShip.shipInfo.diamondShards.push(shipInfo.diamondShards[i]);\n        }\n        newShip.startBlock = block.number;\n        newShip.used = true;\n\n        return 0;\n    }\n\n    /**\n     * @notice See {IStarport-trek}\n     */\n    function trek(uint256 _id, bytes calldata _receiver, string calldata _toChain) public override {        \n        StarshipRecord storage ship = _dockedShips[_id];\n        require(ship.used, \"Not docked\");\n        require(_starshipNFTContract.ownerOf(_id) == msg.sender, \"Not owner\");\n\n        mapping(string => DestnContract) storage map = destnContractMap[_toChain];\n        DestnContract storage destnContract = map[\"dock\"];\n        require(destnContract.used, \"action not registered\");\n\n        // Settlement\n        settleReward(_id);\n\n        // Pack cross-chain payload\n        Payload memory data;\n        data.items = new PayloadItem[](3);\n\n        // 0: to address\n        PayloadItem memory item0 = data.items[0];\n        item0.name = \"receiver\";\n        item0.msgType = MsgType.Bytes;\n        item0.value = abi.encode(_receiver);\n\n        // 1: uint256 shipId;\n        PayloadItem memory item1 = data.items[1];\n        item1.name = \"id\";\n        item1.msgType = MsgType.EvmU128;\n        item1.value = abi.encode(uint128(_id));\n\n        // 2: starship data\n        PayloadItem memory item2 = data.items[2];\n        item2.name = \"starshipData\";\n        item2.msgType = MsgType.Bytes;\n        item2.value = abi.encode(abi.encode(ship.shipInfo));\n\n        // clear locally\n        delete _dockedShips[_id];\n        _starshipNFTContract.shipLeave(_id);\n\n        // make cross chain call\n        ISentMessage memory message;\n        message.toChain = _toChain;\n        message.session = Session(0, 0, \"\", \"\", \"\");\n        message.content = Content(destnContract.contractAddress, destnContract.funcName, data);\n\n        crossChainContract.sendMessage(message);\n    }\n\n    // local settlement\n    function calcReward(uint256 _start_block) public view returns(uint256) {\n        return (block.number > _start_block) ? (block.number - _start_block) : 0;\n    }\n\n    /**\n     * @notice Settles rewards\n     */\n    function settleReward(uint256 _id) public {\n        StarshipRecord storage ship = _dockedShips[_id];\n        require(ship.used, \"Not docked\");\n\n        bool found = false;\n        for (uint i = 0; i < ship.shipInfo.diamondShards.length; i++) {\n            if (keccak256(bytes(ship.shipInfo.diamondShards[i].galaxy)) == keccak256(bytes(crossChainContract.chainName())) &&\n            ship.shipInfo.diamondShards[i].starportId == address(this)) {\n                found = true;\n                ship.shipInfo.diamondShards[i].amount += calcReward(ship.startBlock);\n                break;\n            }\n        }\n\n        if (!found) {\n            ship.shipInfo.diamondShards.push(DiamondShard(\n                crossChainContract.chainName(),\n                address(this),\n                calcReward(ship.startBlock))\n            );\n        }\n        ship.startBlock = block.number;\n    }\n\n    /**\n     * @notice Sets the address of starship NFT contract\n     */\n    function setStarshipNFTAddress(address _address) public onlyOwner {\n        _starshipNFTContract = IStarship(_address);\n    }\n\n    /**\n     * Register destination contract info\n     * @param _funcName - function name to be called\n     * @param _toChain - destination chain name\n     * @param _contractAddress - destination contract address\n     * @param _contractFuncName - contract function name\n     */\n    function registerDestContract(\n        string calldata _funcName,\n        string calldata _toChain,\n        bytes calldata _contractAddress,\n        bytes calldata _contractFuncName\n    ) external onlyOwner {\n        mapping(string => DestnContract) storage map = destnContractMap[_toChain];\n        DestnContract storage destnContract = map[_funcName];\n        destnContract.contractAddress = _contractAddress;\n        destnContract.funcName = _contractFuncName;\n        destnContract.used = true;\n    }\n}\n",
  "sourcePath": "/home/dd512/star-trek-system-test/contracts/star-trek/contracts/contracts/Starport.sol",
  "compiler": {
    "name": "solc",
    "version": "0.8.10+commit.fc410830.Emscripten.clang"
  },
  "schemaVersion": "3.4.13",
  "updatedAt": "2023-05-08T08:54:50.122Z",
  "networkType": "ethereum",
  "devdoc": {
    "details": "Implement the workflow of the star trek on one chain",
    "kind": "dev",
    "methods": {
      "owner()": {
        "details": "Returns the address of the current owner."
      },
      "registerDestContract(string,string,bytes,bytes)": {
        "params": {
          "_contractAddress": "- destination contract address",
          "_contractFuncName": "- contract function name",
          "_funcName": "- function name to be called",
          "_toChain": "- destination chain name"
        }
      },
      "renounceOwnership()": {
        "details": "Leaves the contract without owner. It will not be possible to call `onlyOwner` functions anymore. Can only be called by the current owner. NOTE: Renouncing ownership will leave the contract without an owner, thereby removing any functionality that is only available to the owner."
      },
      "setCrossChainContract(address)": {
        "params": {
          "_address": "- cross chain contract address"
        }
      },
      "transferOwnership(address)": {
        "details": "Transfers ownership of the contract to a new account (`newOwner`). Can only be called by the current owner."
      },
      "verify(string,bytes4,bytes)": {
        "params": {
          "_chainName": "- chain name of cross chain message",
          "_funcName": "- contract action name of cross chain message",
          "_sender": "- cross chain message sender"
        }
      }
    },
    "title": "The contract for starport",
    "version": 1
  },
  "userdoc": {
    "kind": "user",
    "methods": {
      "dock(((string,uint8,bytes)[]))": {
        "notice": "See {IStarport-dock}"
      },
      "registerDestContract(string,string,bytes,bytes)": {
        "notice": "Register destination contract info"
      },
      "setCrossChainContract(address)": {
        "notice": "Set cross chain contract"
      },
      "setStarshipNFTAddress(address)": {
        "notice": "Sets the address of starship NFT contract"
      },
      "settleReward(uint256)": {
        "notice": "Settles rewards"
      },
      "shardsOfStarship(uint256)": {
        "notice": "Returns diamond shards of a starship"
      },
      "trek(uint256,bytes,string)": {
        "notice": "See {IStarport-trek}"
      },
      "verify(string,bytes4,bytes)": {
        "notice": "This verify method will be invoked by the CrossChain contract automatically, ensure that only registered contract(registerSourceContract) calls are allowed"
      }
    },
    "version": 1
  }
}